{
    "_format": "hh3-artifact-1",
    "contractName": "GaslessNFTMarketplace",
    "sourceName": "contracts/GaslessNFTMarketplace.sol",
    "abi": [
        {
            "inputs": [],
            "stateMutability": "nonpayable",
            "type": "constructor"
        },
        {
            "inputs": [
                {
                    "internalType": "address",
                    "name": "sender",
                    "type": "address"
                },
                {
                    "internalType": "uint256",
                    "name": "tokenId",
                    "type": "uint256"
                },
                {
                    "internalType": "address",
                    "name": "owner",
                    "type": "address"
                }
            ],
            "name": "ERC721IncorrectOwner",
            "type": "error"
        },
        {
            "inputs": [
                {
                    "internalType": "address",
                    "name": "operator",
                    "type": "address"
                },
                {
                    "internalType": "uint256",
                    "name": "tokenId",
                    "type": "uint256"
                }
            ],
            "name": "ERC721InsufficientApproval",
            "type": "error"
        },
        {
            "inputs": [
                {
                    "internalType": "address",
                    "name": "approver",
                    "type": "address"
                }
            ],
            "name": "ERC721InvalidApprover",
            "type": "error"
        },
        {
            "inputs": [
                {
                    "internalType": "address",
                    "name": "operator",
                    "type": "address"
                }
            ],
            "name": "ERC721InvalidOperator",
            "type": "error"
        },
        {
            "inputs": [
                {
                    "internalType": "address",
                    "name": "owner",
                    "type": "address"
                }
            ],
            "name": "ERC721InvalidOwner",
            "type": "error"
        },
        {
            "inputs": [
                {
                    "internalType": "address",
                    "name": "receiver",
                    "type": "address"
                }
            ],
            "name": "ERC721InvalidReceiver",
            "type": "error"
        },
        {
            "inputs": [
                {
                    "internalType": "address",
                    "name": "sender",
                    "type": "address"
                }
            ],
            "name": "ERC721InvalidSender",
            "type": "error"
        },
        {
            "inputs": [
                {
                    "internalType": "uint256",
                    "name": "tokenId",
                    "type": "uint256"
                }
            ],
            "name": "ERC721NonexistentToken",
            "type": "error"
        },
        {
            "inputs": [
                {
                    "internalType": "address",
                    "name": "owner",
                    "type": "address"
                }
            ],
            "name": "OwnableInvalidOwner",
            "type": "error"
        },
        {
            "inputs": [
                {
                    "internalType": "address",
                    "name": "account",
                    "type": "address"
                }
            ],
            "name": "OwnableUnauthorizedAccount",
            "type": "error"
        },
        {
            "inputs": [],
            "name": "ReentrancyGuardReentrantCall",
            "type": "error"
        },
        {
            "anonymous": false,
            "inputs": [
                {
                    "indexed": true,
                    "internalType": "address",
                    "name": "owner",
                    "type": "address"
                },
                {
                    "indexed": true,
                    "internalType": "address",
                    "name": "approved",
                    "type": "address"
                },
                {
                    "indexed": true,
                    "internalType": "uint256",
                    "name": "tokenId",
                    "type": "uint256"
                }
            ],
            "name": "Approval",
            "type": "event"
        },
        {
            "anonymous": false,
            "inputs": [
                {
                    "indexed": true,
                    "internalType": "address",
                    "name": "owner",
                    "type": "address"
                },
                {
                    "indexed": true,
                    "internalType": "address",
                    "name": "operator",
                    "type": "address"
                },
                {
                    "indexed": false,
                    "internalType": "bool",
                    "name": "approved",
                    "type": "bool"
                }
            ],
            "name": "ApprovalForAll",
            "type": "event"
        },
        {
            "anonymous": false,
            "inputs": [
                {
                    "indexed": false,
                    "internalType": "uint256",
                    "name": "_fromTokenId",
                    "type": "uint256"
                },
                {
                    "indexed": false,
                    "internalType": "uint256",
                    "name": "_toTokenId",
                    "type": "uint256"
                }
            ],
            "name": "BatchMetadataUpdate",
            "type": "event"
        },
        {
            "anonymous": false,
            "inputs": [
                {
                    "indexed": true,
                    "internalType": "uint256",
                    "name": "tokenId",
                    "type": "uint256"
                }
            ],
            "name": "ListingCancelled",
            "type": "event"
        },
        {
            "anonymous": false,
            "inputs": [
                {
                    "indexed": false,
                    "internalType": "uint256",
                    "name": "_tokenId",
                    "type": "uint256"
                }
            ],
            "name": "MetadataUpdate",
            "type": "event"
        },
        {
            "anonymous": false,
            "inputs": [
                {
                    "indexed": true,
                    "internalType": "uint256",
                    "name": "tokenId",
                    "type": "uint256"
                },
                {
                    "indexed": false,
                    "internalType": "uint256",
                    "name": "price",
                    "type": "uint256"
                },
                {
                    "indexed": true,
                    "internalType": "address",
                    "name": "seller",
                    "type": "address"
                }
            ],
            "name": "NFTListed",
            "type": "event"
        },
        {
            "anonymous": false,
            "inputs": [
                {
                    "indexed": true,
                    "internalType": "address",
                    "name": "minter",
                    "type": "address"
                },
                {
                    "indexed": true,
                    "internalType": "uint256",
                    "name": "tokenId",
                    "type": "uint256"
                },
                {
                    "indexed": false,
                    "internalType": "string",
                    "name": "tokenURI",
                    "type": "string"
                }
            ],
            "name": "NFTMinted",
            "type": "event"
        },
        {
            "anonymous": false,
            "inputs": [
                {
                    "indexed": true,
                    "internalType": "uint256",
                    "name": "tokenId",
                    "type": "uint256"
                },
                {
                    "indexed": true,
                    "internalType": "address",
                    "name": "buyer",
                    "type": "address"
                },
                {
                    "indexed": true,
                    "internalType": "address",
                    "name": "seller",
                    "type": "address"
                },
                {
                    "indexed": false,
                    "internalType": "uint256",
                    "name": "price",
                    "type": "uint256"
                }
            ],
            "name": "NFTSold",
            "type": "event"
        },
        {
            "anonymous": false,
            "inputs": [
                {
                    "indexed": true,
                    "internalType": "address",
                    "name": "previousOwner",
                    "type": "address"
                },
                {
                    "indexed": true,
                    "internalType": "address",
                    "name": "newOwner",
                    "type": "address"
                }
            ],
            "name": "OwnershipTransferred",
            "type": "event"
        },
        {
            "anonymous": false,
            "inputs": [
                {
                    "indexed": true,
                    "internalType": "address",
                    "name": "from",
                    "type": "address"
                },
                {
                    "indexed": true,
                    "internalType": "address",
                    "name": "to",
                    "type": "address"
                },
                {
                    "indexed": true,
                    "internalType": "uint256",
                    "name": "tokenId",
                    "type": "uint256"
                }
            ],
            "name": "Transfer",
            "type": "event"
        },
        {
            "inputs": [
                {
                    "internalType": "address",
                    "name": "to",
                    "type": "address"
                },
                {
                    "internalType": "uint256",
                    "name": "tokenId",
                    "type": "uint256"
                }
            ],
            "name": "approve",
            "outputs": [],
            "stateMutability": "nonpayable",
            "type": "function"
        },
        {
            "inputs": [
                {
                    "internalType": "address",
                    "name": "owner",
                    "type": "address"
                }
            ],
            "name": "balanceOf",
            "outputs": [
                {
                    "internalType": "uint256",
                    "name": "",
                    "type": "uint256"
                }
            ],
            "stateMutability": "view",
            "type": "function"
        },
        {
            "inputs": [
                {
                    "internalType": "uint256",
                    "name": "tokenId",
                    "type": "uint256"
                }
            ],
            "name": "buyNFT",
            "outputs": [],
            "stateMutability": "payable",
            "type": "function"
        },
        {
            "inputs": [
                {
                    "internalType": "uint256",
                    "name": "tokenId",
                    "type": "uint256"
                }
            ],
            "name": "cancelListing",
            "outputs": [],
            "stateMutability": "nonpayable",
            "type": "function"
        },
        {
            "inputs": [
                {
                    "internalType": "uint256",
                    "name": "tokenId",
                    "type": "uint256"
                }
            ],
            "name": "getApproved",
            "outputs": [
                {
                    "internalType": "address",
                    "name": "",
                    "type": "address"
                }
            ],
            "stateMutability": "view",
            "type": "function"
        },
        {
            "inputs": [
                {
                    "internalType": "address",
                    "name": "owner",
                    "type": "address"
                },
                {
                    "internalType": "address",
                    "name": "operator",
                    "type": "address"
                }
            ],
            "name": "isApprovedForAll",
            "outputs": [
                {
                    "internalType": "bool",
                    "name": "",
                    "type": "bool"
                }
            ],
            "stateMutability": "view",
            "type": "function"
        },
        {
            "inputs": [
                {
                    "internalType": "uint256",
                    "name": "tokenId",
                    "type": "uint256"
                },
                {
                    "internalType": "uint256",
                    "name": "price",
                    "type": "uint256"
                }
            ],
            "name": "listForSale",
            "outputs": [],
            "stateMutability": "nonpayable",
            "type": "function"
        },
        {
            "inputs": [
                {
                    "internalType": "uint256",
                    "name": "",
                    "type": "uint256"
                }
            ],
            "name": "listings",
            "outputs": [
                {
                    "internalType": "uint256",
                    "name": "price",
                    "type": "uint256"
                },
                {
                    "internalType": "address",
                    "name": "seller",
                    "type": "address"
                },
                {
                    "internalType": "bool",
                    "name": "isListed",
                    "type": "bool"
                }
            ],
            "stateMutability": "view",
            "type": "function"
        },
        {
            "inputs": [
                {
                    "internalType": "string",
                    "name": "tokenURI",
                    "type": "string"
                }
            ],
            "name": "mintWithMetadata",
            "outputs": [
                {
                    "internalType": "uint256",
                    "name": "",
                    "type": "uint256"
                }
            ],
            "stateMutability": "nonpayable",
            "type": "function"
        },
        {
            "inputs": [],
            "name": "name",
            "outputs": [
                {
                    "internalType": "string",
                    "name": "",
                    "type": "string"
                }
            ],
            "stateMutability": "view",
            "type": "function"
        },
        {
            "inputs": [],
            "name": "owner",
            "outputs": [
                {
                    "internalType": "address",
                    "name": "",
                    "type": "address"
                }
            ],
            "stateMutability": "view",
            "type": "function"
        },
        {
            "inputs": [
                {
                    "internalType": "uint256",
                    "name": "tokenId",
                    "type": "uint256"
                }
            ],
            "name": "ownerOf",
            "outputs": [
                {
                    "internalType": "address",
                    "name": "",
                    "type": "address"
                }
            ],
            "stateMutability": "view",
            "type": "function"
        },
        {
            "inputs": [],
            "name": "renounceOwnership",
            "outputs": [],
            "stateMutability": "nonpayable",
            "type": "function"
        },
        {
            "inputs": [
                {
                    "internalType": "address",
                    "name": "from",
                    "type": "address"
                },
                {
                    "internalType": "address",
                    "name": "to",
                    "type": "address"
                },
                {
                    "internalType": "uint256",
                    "name": "tokenId",
                    "type": "uint256"
                }
            ],
            "name": "safeTransferFrom",
            "outputs": [],
            "stateMutability": "nonpayable",
            "type": "function"
        },
        {
            "inputs": [
                {
                    "internalType": "address",
                    "name": "from",
                    "type": "address"
                },
                {
                    "internalType": "address",
                    "name": "to",
                    "type": "address"
                },
                {
                    "internalType": "uint256",
                    "name": "tokenId",
                    "type": "uint256"
                },
                {
                    "internalType": "bytes",
                    "name": "data",
                    "type": "bytes"
                }
            ],
            "name": "safeTransferFrom",
            "outputs": [],
            "stateMutability": "nonpayable",
            "type": "function"
        },
        {
            "inputs": [
                {
                    "internalType": "address",
                    "name": "operator",
                    "type": "address"
                },
                {
                    "internalType": "bool",
                    "name": "approved",
                    "type": "bool"
                }
            ],
            "name": "setApprovalForAll",
            "outputs": [],
            "stateMutability": "nonpayable",
            "type": "function"
        },
        {
            "inputs": [
                {
                    "internalType": "bytes4",
                    "name": "interfaceId",
                    "type": "bytes4"
                }
            ],
            "name": "supportsInterface",
            "outputs": [
                {
                    "internalType": "bool",
                    "name": "",
                    "type": "bool"
                }
            ],
            "stateMutability": "view",
            "type": "function"
        },
        {
            "inputs": [],
            "name": "symbol",
            "outputs": [
                {
                    "internalType": "string",
                    "name": "",
                    "type": "string"
                }
            ],
            "stateMutability": "view",
            "type": "function"
        },
        {
            "inputs": [
                {
                    "internalType": "uint256",
                    "name": "tokenId",
                    "type": "uint256"
                }
            ],
            "name": "tokenURI",
            "outputs": [
                {
                    "internalType": "string",
                    "name": "",
                    "type": "string"
                }
            ],
            "stateMutability": "view",
            "type": "function"
        },
        {
            "inputs": [
                {
                    "internalType": "address",
                    "name": "owner",
                    "type": "address"
                }
            ],
            "name": "tokensOfOwner",
            "outputs": [
                {
                    "internalType": "uint256[]",
                    "name": "",
                    "type": "uint256[]"
                }
            ],
            "stateMutability": "view",
            "type": "function"
        },
        {
            "inputs": [],
            "name": "totalSupply",
            "outputs": [
                {
                    "internalType": "uint256",
                    "name": "",
                    "type": "uint256"
                }
            ],
            "stateMutability": "view",
            "type": "function"
        },
        {
            "inputs": [
                {
                    "internalType": "address",
                    "name": "from",
                    "type": "address"
                },
                {
                    "internalType": "address",
                    "name": "to",
                    "type": "address"
                },
                {
                    "internalType": "uint256",
                    "name": "tokenId",
                    "type": "uint256"
                }
            ],
            "name": "transferFrom",
            "outputs": [],
            "stateMutability": "nonpayable",
            "type": "function"
        },
        {
            "inputs": [
                {
                    "internalType": "address",
                    "name": "newOwner",
                    "type": "address"
                }
            ],
            "name": "transferOwnership",
            "outputs": [],
            "stateMutability": "nonpayable",
            "type": "function"
        }
    ],
    "bytecode": "0x608060405234801561000f575f5ffd5b50336040518060400160405280600a81526020017f4761736c6573734e4654000000000000000000000000000000000000000000008152506040518060400160405280600481526020017f474e465400000000000000000000000000000000000000000000000000000000815250815f908161008b919061042b565b50806001908161009b919061042b565b5050505f73ffffffffffffffffffffffffffffffffffffffff168173ffffffffffffffffffffffffffffffffffffffff160361010e575f6040517f1e4fbdf70000000000000000000000000000000000000000000000000000000081526004016101059190610539565b60405180910390fd5b61011d8161012b60201b60201c565b506001600881905550610552565b5f60075f9054906101000a900473ffffffffffffffffffffffffffffffffffffffff1690508160075f6101000a81548173ffffffffffffffffffffffffffffffffffffffff021916908373ffffffffffffffffffffffffffffffffffffffff1602179055508173ffffffffffffffffffffffffffffffffffffffff168173ffffffffffffffffffffffffffffffffffffffff167f8be0079c531659141344cd1fd0a4f28419497f9722a3daafe3b4186f6b6457e060405160405180910390a35050565b5f81519050919050565b7f4e487b71000000000000000000000000000000000000000000000000000000005f52604160045260245ffd5b7f4e487b71000000000000000000000000000000000000000000000000000000005f52602260045260245ffd5b5f600282049050600182168061026957607f821691505b60208210810361027c5761027b610225565b5b50919050565b5f819050815f5260205f209050919050565b5f6020601f8301049050919050565b5f82821b905092915050565b5f600883026102de7fffffffffffffffffffffffffffffffffffffffffffffffffffffffffffffffff826102a3565b6102e886836102a3565b95508019841693508086168417925050509392505050565b5f819050919050565b5f819050919050565b5f61032c61032761032284610300565b610309565b610300565b9050919050565b5f819050919050565b61034583610312565b61035961035182610333565b8484546102af565b825550505050565b5f5f905090565b610370610361565b61037b81848461033c565b505050565b5b8181101561039e576103935f82610368565b600181019050610381565b5050565b601f8211156103e3576103b481610282565b6103bd84610294565b810160208510156103cc578190505b6103e06103d885610294565b830182610380565b50505b505050565b5f82821c905092915050565b5f6104035f19846008026103e8565b1980831691505092915050565b5f61041b83836103f4565b9150826002028217905092915050565b610434826101ee565b67ffffffffffffffff81111561044d5761044c6101f8565b5b6104578254610252565b6104628282856103a2565b5f60209050601f831160018114610493575f8415610481578287015190505b61048b8582610410565b8655506104f2565b601f1984166104a186610282565b5f5b828110156104c8578489015182556001820191506020850194506020810190506104a3565b868310156104e557848901516104e1601f8916826103f4565b8355505b6001600288020188555050505b505050505050565b5f73ffffffffffffffffffffffffffffffffffffffff82169050919050565b5f610523826104fa565b9050919050565b61053381610519565b82525050565b5f60208201905061054c5f83018461052a565b92915050565b6137968061055f5f395ff3fe60806040526004361061013f575f3560e01c8063715018a6116100b5578063b88d4fde1161006e578063b88d4fde1461044d578063c87b56dd14610475578063de74e57b146104b1578063e80d7fec146104ef578063e985e9c514610517578063f2fde38b146105535761013f565b8063715018a6146103435780638462151c146103595780638cf95383146103955780638da5cb5b146103d157806395d89b41146103fb578063a22cb465146104255761013f565b806323b872dd1161010757806323b872dd14610237578063305a67a81461025f57806342842e0e1461028757806351ed8288146102af5780636352211e146102cb57806370a08231146103075761013f565b806301ffc9a71461014357806306fdde031461017f578063081812fc146101a9578063095ea7b3146101e557806318160ddd1461020d575b5f5ffd5b34801561014e575f5ffd5b50610169600480360381019061016491906126e6565b61057b565b604051610176919061272b565b60405180910390f35b34801561018a575f5ffd5b506101936105db565b6040516101a091906127b4565b60405180910390f35b3480156101b4575f5ffd5b506101cf60048036038101906101ca9190612807565b61066a565b6040516101dc9190612871565b60405180910390f35b3480156101f0575f5ffd5b5061020b600480360381019061020691906128b4565b610685565b005b348015610218575f5ffd5b5061022161069b565b60405161022e9190612901565b60405180910390f35b348015610242575f5ffd5b5061025d6004803603810190610258919061291a565b6106a4565b005b34801561026a575f5ffd5b5061028560048036038101906102809190612807565b6107a3565b005b348015610292575f5ffd5b506102ad60048036038101906102a8919061291a565b610929565b005b6102c960048036038101906102c49190612807565b610948565b005b3480156102d6575f5ffd5b506102f160048036038101906102ec9190612807565b610cbe565b6040516102fe9190612871565b60405180910390f35b348015610312575f5ffd5b5061032d6004803603810190610328919061296a565b610ccf565b60405161033a9190612901565b60405180910390f35b34801561034e575f5ffd5b50610357610d85565b005b348015610364575f5ffd5b5061037f600480360381019061037a919061296a565b610d98565b60405161038c9190612a4c565b60405180910390f35b3480156103a0575f5ffd5b506103bb60048036038101906103b69190612b98565b610e8e565b6040516103c89190612901565b60405180910390f35b3480156103dc575f5ffd5b506103e5610f18565b6040516103f29190612871565b60405180910390f35b348015610406575f5ffd5b5061040f610f40565b60405161041c91906127b4565b60405180910390f35b348015610430575f5ffd5b5061044b60048036038101906104469190612c09565b610fd0565b005b348015610458575f5ffd5b50610473600480360381019061046e9190612ce5565b610fe6565b005b348015610480575f5ffd5b5061049b60048036038101906104969190612807565b61100b565b6040516104a891906127b4565b60405180910390f35b3480156104bc575f5ffd5b506104d760048036038101906104d29190612807565b611116565b6040516104e693929190612d65565b60405180910390f35b3480156104fa575f5ffd5b5061051560048036038101906105109190612d9a565b611168565b005b348015610522575f5ffd5b5061053d60048036038101906105389190612dd8565b61138b565b60405161054a919061272b565b60405180910390f35b34801561055e575f5ffd5b506105796004803603810190610574919061296a565b611419565b005b5f634906490660e01b7bffffffffffffffffffffffffffffffffffffffffffffffffffffffff1916827bffffffffffffffffffffffffffffffffffffffffffffffffffffffff191614806105d457506105d38261149d565b5b9050919050565b60605f80546105e990612e43565b80601f016020809104026020016040519081016040528092919081815260200182805461061590612e43565b80156106605780601f1061063757610100808354040283529160200191610660565b820191905f5260205f20905b81548152906001019060200180831161064357829003601f168201915b5050505050905090565b5f6106748261157e565b5061067e82611604565b9050919050565b610697828261069261163d565b611644565b5050565b5f600954905090565b5f73ffffffffffffffffffffffffffffffffffffffff168273ffffffffffffffffffffffffffffffffffffffff1603610714575f6040517f64a0ae9200000000000000000000000000000000000000000000000000000000815260040161070b9190612871565b60405180910390fd5b5f610727838361072261163d565b611656565b90508373ffffffffffffffffffffffffffffffffffffffff168173ffffffffffffffffffffffffffffffffffffffff161461079d578382826040517f64283d7b00000000000000000000000000000000000000000000000000000000815260040161079493929190612e73565b60405180910390fd5b50505050565b3373ffffffffffffffffffffffffffffffffffffffff16600a5f8381526020019081526020015f206001015f9054906101000a900473ffffffffffffffffffffffffffffffffffffffff1673ffffffffffffffffffffffffffffffffffffffff1614610844576040517f08c379a000000000000000000000000000000000000000000000000000000000815260040161083b90612ef2565b60405180910390fd5b600a5f8281526020019081526020015f2060010160149054906101000a900460ff166108a5576040517f08c379a000000000000000000000000000000000000000000000000000000000815260040161089c90612f5a565b60405180910390fd5b600a5f8281526020019081526020015f205f5f82015f9055600182015f6101000a81549073ffffffffffffffffffffffffffffffffffffffff02191690556001820160146101000a81549060ff02191690555050807f411aee90354c51b1b04cd563fcab2617142a9d50da19232d888547c8a1b7fd8a60405160405180910390a250565b61094383838360405180602001604052805f815250610fe6565b505050565b610950611861565b5f600a5f8381526020019081526020015f206040518060600160405290815f8201548152602001600182015f9054906101000a900473ffffffffffffffffffffffffffffffffffffffff1673ffffffffffffffffffffffffffffffffffffffff1673ffffffffffffffffffffffffffffffffffffffff1681526020016001820160149054906101000a900460ff16151515158152505090508060400151610a2c576040517f08c379a0000000000000000000000000000000000000000000000000000000008152600401610a2390612fc2565b60405180910390fd5b805f0151341015610a72576040517f08c379a0000000000000000000000000000000000000000000000000000000008152600401610a699061302a565b60405180910390fd5b5f81602001519050600a5f8481526020019081526020015f205f5f82015f9055600182015f6101000a81549073ffffffffffffffffffffffffffffffffffffffff02191690556001820160146101000a81549060ff02191690555050610ad98133856118a7565b5f8173ffffffffffffffffffffffffffffffffffffffff16835f0151604051610b0190613075565b5f6040518083038185875af1925050503d805f8114610b3b576040519150601f19603f3d011682016040523d82523d5f602084013e610b40565b606091505b5050905080610b84576040517f08c379a0000000000000000000000000000000000000000000000000000000008152600401610b7b906130d3565b60405180910390fd5b825f0151341115610c47575f3373ffffffffffffffffffffffffffffffffffffffff16845f015134610bb6919061311e565b604051610bc290613075565b5f6040518083038185875af1925050503d805f8114610bfc576040519150601f19603f3d011682016040523d82523d5f602084013e610c01565b606091505b5050905080610c45576040517f08c379a0000000000000000000000000000000000000000000000000000000008152600401610c3c9061319b565b60405180910390fd5b505b8173ffffffffffffffffffffffffffffffffffffffff163373ffffffffffffffffffffffffffffffffffffffff16857f8562eb94748e30bb0071e932744ce902b460c683474fcb3bfd567ffa16b1afb2865f0151604051610ca89190612901565b60405180910390a4505050610cbb611a0f565b50565b5f610cc88261157e565b9050919050565b5f5f73ffffffffffffffffffffffffffffffffffffffff168273ffffffffffffffffffffffffffffffffffffffff1603610d40575f6040517f89c62b64000000000000000000000000000000000000000000000000000000008152600401610d379190612871565b60405180910390fd5b60035f8373ffffffffffffffffffffffffffffffffffffffff1673ffffffffffffffffffffffffffffffffffffffff1681526020019081526020015f20549050919050565b610d8d611a19565b610d965f611aa0565b565b60605f610da483610ccf565b90505f8167ffffffffffffffff811115610dc157610dc0612a74565b5b604051908082528060200260200182016040528015610def5781602001602082028036833780820191505090505b5090505f5f90505f600190505b6009548111610e82578573ffffffffffffffffffffffffffffffffffffffff16610e2582611b63565b73ffffffffffffffffffffffffffffffffffffffff1603610e6f5780838381518110610e5457610e536131b9565b5b6020026020010181815250508180610e6b906131e6565b9250505b8080610e7a906131e6565b915050610dfc565b50819350505050919050565b5f60095f815480929190610ea1906131e6565b91905055505f6009549050610eb63382611b9c565b610ec08184611bb9565b803373ffffffffffffffffffffffffffffffffffffffff167fd35bb95e09c04b219e35047ce7b7b300e3384264ef84a40456943dbc0fc17c1485604051610f0791906127b4565b60405180910390a380915050919050565b5f60075f9054906101000a900473ffffffffffffffffffffffffffffffffffffffff16905090565b606060018054610f4f90612e43565b80601f0160208091040260200160405190810160405280929190818152602001828054610f7b90612e43565b8015610fc65780601f10610f9d57610100808354040283529160200191610fc6565b820191905f5260205f20905b815481529060010190602001808311610fa957829003601f168201915b5050505050905090565b610fe2610fdb61163d565b8383611c13565b5050565b610ff18484846106a4565b611005610ffc61163d565b85858585611d7c565b50505050565b60606110168261157e565b505f60065f8481526020019081526020015f20805461103490612e43565b80601f016020809104026020016040519081016040528092919081815260200182805461106090612e43565b80156110ab5780601f10611082576101008083540402835291602001916110ab565b820191905f5260205f20905b81548152906001019060200180831161108e57829003601f168201915b505050505090505f6110bb611f28565b90505f8151036110cf578192505050611111565b5f825111156111035780826040516020016110eb929190613267565b60405160208183030381529060405292505050611111565b61110c84611f3e565b925050505b919050565b600a602052805f5260405f205f91509050805f015490806001015f9054906101000a900473ffffffffffffffffffffffffffffffffffffffff16908060010160149054906101000a900460ff16905083565b3373ffffffffffffffffffffffffffffffffffffffff1661118883610cbe565b73ffffffffffffffffffffffffffffffffffffffff16146111de576040517f08c379a00000000000000000000000000000000000000000000000000000000081526004016111d5906132d4565b60405180910390fd5b5f8111611220576040517f08c379a00000000000000000000000000000000000000000000000000000000081526004016112179061333c565b60405180910390fd5b600a5f8381526020019081526020015f2060010160149054906101000a900460ff1615611282576040517f08c379a0000000000000000000000000000000000000000000000000000000008152600401611279906133a4565b60405180910390fd5b60405180606001604052808281526020013373ffffffffffffffffffffffffffffffffffffffff16815260200160011515815250600a5f8481526020019081526020015f205f820151815f01556020820151816001015f6101000a81548173ffffffffffffffffffffffffffffffffffffffff021916908373ffffffffffffffffffffffffffffffffffffffff16021790555060408201518160010160146101000a81548160ff0219169083151502179055509050503373ffffffffffffffffffffffffffffffffffffffff16827fd2ab19646d6f9fdd37206f962b4ebaab8a4a23ad87f7695e7e1736803cb8bf748360405161137f9190612901565b60405180910390a35050565b5f60055f8473ffffffffffffffffffffffffffffffffffffffff1673ffffffffffffffffffffffffffffffffffffffff1681526020019081526020015f205f8373ffffffffffffffffffffffffffffffffffffffff1673ffffffffffffffffffffffffffffffffffffffff1681526020019081526020015f205f9054906101000a900460ff16905092915050565b611421611a19565b5f73ffffffffffffffffffffffffffffffffffffffff168173ffffffffffffffffffffffffffffffffffffffff1603611491575f6040517f1e4fbdf70000000000000000000000000000000000000000000000000000000081526004016114889190612871565b60405180910390fd5b61149a81611aa0565b50565b5f7f80ac58cd000000000000000000000000000000000000000000000000000000007bffffffffffffffffffffffffffffffffffffffffffffffffffffffff1916827bffffffffffffffffffffffffffffffffffffffffffffffffffffffff1916148061156757507f5b5e139f000000000000000000000000000000000000000000000000000000007bffffffffffffffffffffffffffffffffffffffffffffffffffffffff1916827bffffffffffffffffffffffffffffffffffffffffffffffffffffffff1916145b80611577575061157682611fa4565b5b9050919050565b5f5f61158983611b63565b90505f73ffffffffffffffffffffffffffffffffffffffff168173ffffffffffffffffffffffffffffffffffffffff16036115fb57826040517f7e2732890000000000000000000000000000000000000000000000000000000081526004016115f29190612901565b60405180910390fd5b80915050919050565b5f60045f8381526020019081526020015f205f9054906101000a900473ffffffffffffffffffffffffffffffffffffffff169050919050565b5f33905090565b611651838383600161200d565b505050565b5f5f61166184611b63565b90505f73ffffffffffffffffffffffffffffffffffffffff168373ffffffffffffffffffffffffffffffffffffffff16146116a2576116a18184866121cc565b5b5f73ffffffffffffffffffffffffffffffffffffffff168173ffffffffffffffffffffffffffffffffffffffff161461172d576116e15f855f5f61200d565b600160035f8373ffffffffffffffffffffffffffffffffffffffff1673ffffffffffffffffffffffffffffffffffffffff1681526020019081526020015f205f82825403925050819055505b5f73ffffffffffffffffffffffffffffffffffffffff168573ffffffffffffffffffffffffffffffffffffffff16146117ac57600160035f8773ffffffffffffffffffffffffffffffffffffffff1673ffffffffffffffffffffffffffffffffffffffff1681526020019081526020015f205f82825401925050819055505b8460025f8681526020019081526020015f205f6101000a81548173ffffffffffffffffffffffffffffffffffffffff021916908373ffffffffffffffffffffffffffffffffffffffff160217905550838573ffffffffffffffffffffffffffffffffffffffff168273ffffffffffffffffffffffffffffffffffffffff167fddf252ad1be2c89b69c2b068fc378daa952ba7f163c4a11628f55a4df523b3ef60405160405180910390a4809150509392505050565b60026008540361189d576040517f3ee5aeb500000000000000000000000000000000000000000000000000000000815260040160405180910390fd5b6002600881905550565b5f73ffffffffffffffffffffffffffffffffffffffff168273ffffffffffffffffffffffffffffffffffffffff1603611917575f6040517f64a0ae9200000000000000000000000000000000000000000000000000000000815260040161190e9190612871565b60405180910390fd5b5f61192383835f611656565b90505f73ffffffffffffffffffffffffffffffffffffffff168173ffffffffffffffffffffffffffffffffffffffff160361199557816040517f7e27328900000000000000000000000000000000000000000000000000000000815260040161198c9190612901565b60405180910390fd5b8373ffffffffffffffffffffffffffffffffffffffff168173ffffffffffffffffffffffffffffffffffffffff1614611a09578382826040517f64283d7b000000000000000000000000000000000000000000000000000000008152600401611a0093929190612e73565b60405180910390fd5b50505050565b6001600881905550565b611a2161163d565b73ffffffffffffffffffffffffffffffffffffffff16611a3f610f18565b73ffffffffffffffffffffffffffffffffffffffff1614611a9e57611a6261163d565b6040517f118cdaa7000000000000000000000000000000000000000000000000000000008152600401611a959190612871565b60405180910390fd5b565b5f60075f9054906101000a900473ffffffffffffffffffffffffffffffffffffffff1690508160075f6101000a81548173ffffffffffffffffffffffffffffffffffffffff021916908373ffffffffffffffffffffffffffffffffffffffff1602179055508173ffffffffffffffffffffffffffffffffffffffff168173ffffffffffffffffffffffffffffffffffffffff167f8be0079c531659141344cd1fd0a4f28419497f9722a3daafe3b4186f6b6457e060405160405180910390a35050565b5f60025f8381526020019081526020015f205f9054906101000a900473ffffffffffffffffffffffffffffffffffffffff169050919050565b611bb5828260405180602001604052805f81525061228f565b5050565b8060065f8481526020019081526020015f209081611bd79190613562565b507ff8e1a15aba9398e019f0b49df1a4fde98ee17ae345cb5f6b5e2c27f5033e8ce782604051611c079190612901565b60405180910390a15050565b5f73ffffffffffffffffffffffffffffffffffffffff168273ffffffffffffffffffffffffffffffffffffffff1603611c8357816040517f5b08ba18000000000000000000000000000000000000000000000000000000008152600401611c7a9190612871565b60405180910390fd5b8060055f8573ffffffffffffffffffffffffffffffffffffffff1673ffffffffffffffffffffffffffffffffffffffff1681526020019081526020015f205f8473ffffffffffffffffffffffffffffffffffffffff1673ffffffffffffffffffffffffffffffffffffffff1681526020019081526020015f205f6101000a81548160ff0219169083151502179055508173ffffffffffffffffffffffffffffffffffffffff168373ffffffffffffffffffffffffffffffffffffffff167f17307eab39ab6107e8899845ad3d59bd9653f200f220920489ca2b5937696c3183604051611d6f919061272b565b60405180910390a3505050565b5f8373ffffffffffffffffffffffffffffffffffffffff163b1115611f21578273ffffffffffffffffffffffffffffffffffffffff1663150b7a02868685856040518563ffffffff1660e01b8152600401611dda9493929190613683565b6020604051808303815f875af1925050508015611e1557506040513d601f19601f82011682018060405250810190611e1291906136e1565b60015b611e96573d805f8114611e43576040519150601f19603f3d011682016040523d82523d5f602084013e611e48565b606091505b505f815103611e8e57836040517f64a0ae92000000000000000000000000000000000000000000000000000000008152600401611e859190612871565b60405180910390fd5b805160208201fd5b63150b7a0260e01b7bffffffffffffffffffffffffffffffffffffffffffffffffffffffff1916817bffffffffffffffffffffffffffffffffffffffffffffffffffffffff191614611f1f57836040517f64a0ae92000000000000000000000000000000000000000000000000000000008152600401611f169190612871565b60405180910390fd5b505b5050505050565b606060405180602001604052805f815250905090565b6060611f498261157e565b505f611f53611f28565b90505f815111611f715760405180602001604052805f815250611f9c565b80611f7b846122b2565b604051602001611f8c929190613267565b6040516020818303038152906040525b915050919050565b5f7f01ffc9a7000000000000000000000000000000000000000000000000000000007bffffffffffffffffffffffffffffffffffffffffffffffffffffffff1916827bffffffffffffffffffffffffffffffffffffffffffffffffffffffff1916149050919050565b808061204557505f73ffffffffffffffffffffffffffffffffffffffff168273ffffffffffffffffffffffffffffffffffffffff1614155b15612177575f6120548461157e565b90505f73ffffffffffffffffffffffffffffffffffffffff168373ffffffffffffffffffffffffffffffffffffffff16141580156120be57508273ffffffffffffffffffffffffffffffffffffffff168173ffffffffffffffffffffffffffffffffffffffff1614155b80156120d157506120cf818461138b565b155b1561211357826040517fa9fbf51f00000000000000000000000000000000000000000000000000000000815260040161210a9190612871565b60405180910390fd5b811561217557838573ffffffffffffffffffffffffffffffffffffffff168273ffffffffffffffffffffffffffffffffffffffff167f8c5be1e5ebec7d5bd14f71427d1e84f3dd0314c0f7b2291e5b200ac8c7c3b92560405160405180910390a45b505b8360045f8581526020019081526020015f205f6101000a81548173ffffffffffffffffffffffffffffffffffffffff021916908373ffffffffffffffffffffffffffffffffffffffff16021790555050505050565b6121d783838361237c565b61228a575f73ffffffffffffffffffffffffffffffffffffffff168373ffffffffffffffffffffffffffffffffffffffff160361224b57806040517f7e2732890000000000000000000000000000000000000000000000000000000081526004016122429190612901565b60405180910390fd5b81816040517f177e802f00000000000000000000000000000000000000000000000000000000815260040161228192919061370c565b60405180910390fd5b505050565b612299838361243c565b6122ad6122a461163d565b5f858585611d7c565b505050565b60605f60016122c08461252f565b0190505f8167ffffffffffffffff8111156122de576122dd612a74565b5b6040519080825280601f01601f1916602001820160405280156123105781602001600182028036833780820191505090505b5090505f82602083010190505b600115612371578080600190039150507f3031323334353637383961626364656600000000000000000000000000000000600a86061a8153600a858161236657612365613733565b5b0494505f850361231d575b819350505050919050565b5f5f73ffffffffffffffffffffffffffffffffffffffff168373ffffffffffffffffffffffffffffffffffffffff161415801561243357508273ffffffffffffffffffffffffffffffffffffffff168473ffffffffffffffffffffffffffffffffffffffff1614806123f457506123f3848461138b565b5b8061243257508273ffffffffffffffffffffffffffffffffffffffff1661241a83611604565b73ffffffffffffffffffffffffffffffffffffffff16145b5b90509392505050565b5f73ffffffffffffffffffffffffffffffffffffffff168273ffffffffffffffffffffffffffffffffffffffff16036124ac575f6040517f64a0ae920000000000000000000000000000000000000000000000000000000081526004016124a39190612871565b60405180910390fd5b5f6124b883835f611656565b90505f73ffffffffffffffffffffffffffffffffffffffff168173ffffffffffffffffffffffffffffffffffffffff161461252a575f6040517f73c6ac6e0000000000000000000000000000000000000000000000000000000081526004016125219190612871565b60405180910390fd5b505050565b5f5f5f90507a184f03e93ff9f4daa797ed6e38ed64bf6a1f010000000000000000831061258b577a184f03e93ff9f4daa797ed6e38ed64bf6a1f010000000000000000838161258157612580613733565b5b0492506040810190505b6d04ee2d6d415b85acef810000000083106125c8576d04ee2d6d415b85acef810000000083816125be576125bd613733565b5b0492506020810190505b662386f26fc1000083106125f757662386f26fc1000083816125ed576125ec613733565b5b0492506010810190505b6305f5e1008310612620576305f5e100838161261657612615613733565b5b0492506008810190505b612710831061264557612710838161263b5761263a613733565b5b0492506004810190505b60648310612668576064838161265e5761265d613733565b5b0492506002810190505b600a8310612677576001810190505b80915050919050565b5f604051905090565b5f5ffd5b5f5ffd5b5f7fffffffff0000000000000000000000000000000000000000000000000000000082169050919050565b6126c581612691565b81146126cf575f5ffd5b50565b5f813590506126e0816126bc565b92915050565b5f602082840312156126fb576126fa612689565b5b5f612708848285016126d2565b91505092915050565b5f8115159050919050565b61272581612711565b82525050565b5f60208201905061273e5f83018461271c565b92915050565b5f81519050919050565b5f82825260208201905092915050565b8281835e5f83830152505050565b5f601f19601f8301169050919050565b5f61278682612744565b612790818561274e565b93506127a081856020860161275e565b6127a98161276c565b840191505092915050565b5f6020820190508181035f8301526127cc818461277c565b905092915050565b5f819050919050565b6127e6816127d4565b81146127f0575f5ffd5b50565b5f81359050612801816127dd565b92915050565b5f6020828403121561281c5761281b612689565b5b5f612829848285016127f3565b91505092915050565b5f73ffffffffffffffffffffffffffffffffffffffff82169050919050565b5f61285b82612832565b9050919050565b61286b81612851565b82525050565b5f6020820190506128845f830184612862565b92915050565b61289381612851565b811461289d575f5ffd5b50565b5f813590506128ae8161288a565b92915050565b5f5f604083850312156128ca576128c9612689565b5b5f6128d7858286016128a0565b92505060206128e8858286016127f3565b9150509250929050565b6128fb816127d4565b82525050565b5f6020820190506129145f8301846128f2565b92915050565b5f5f5f6060848603121561293157612930612689565b5b5f61293e868287016128a0565b935050602061294f868287016128a0565b9250506040612960868287016127f3565b9150509250925092565b5f6020828403121561297f5761297e612689565b5b5f61298c848285016128a0565b91505092915050565b5f81519050919050565b5f82825260208201905092915050565b5f819050602082019050919050565b6129c7816127d4565b82525050565b5f6129d883836129be565b60208301905092915050565b5f602082019050919050565b5f6129fa82612995565b612a04818561299f565b9350612a0f836129af565b805f5b83811015612a3f578151612a2688826129cd565b9750612a31836129e4565b925050600181019050612a12565b5085935050505092915050565b5f6020820190508181035f830152612a6481846129f0565b905092915050565b5f5ffd5b5f5ffd5b7f4e487b71000000000000000000000000000000000000000000000000000000005f52604160045260245ffd5b612aaa8261276c565b810181811067ffffffffffffffff82111715612ac957612ac8612a74565b5b80604052505050565b5f612adb612680565b9050612ae78282612aa1565b919050565b5f67ffffffffffffffff821115612b0657612b05612a74565b5b612b0f8261276c565b9050602081019050919050565b828183375f83830152505050565b5f612b3c612b3784612aec565b612ad2565b905082815260208101848484011115612b5857612b57612a70565b5b612b63848285612b1c565b509392505050565b5f82601f830112612b7f57612b7e612a6c565b5b8135612b8f848260208601612b2a565b91505092915050565b5f60208284031215612bad57612bac612689565b5b5f82013567ffffffffffffffff811115612bca57612bc961268d565b5b612bd684828501612b6b565b91505092915050565b612be881612711565b8114612bf2575f5ffd5b50565b5f81359050612c0381612bdf565b92915050565b5f5f60408385031215612c1f57612c1e612689565b5b5f612c2c858286016128a0565b9250506020612c3d85828601612bf5565b9150509250929050565b5f67ffffffffffffffff821115612c6157612c60612a74565b5b612c6a8261276c565b9050602081019050919050565b5f612c89612c8484612c47565b612ad2565b905082815260208101848484011115612ca557612ca4612a70565b5b612cb0848285612b1c565b509392505050565b5f82601f830112612ccc57612ccb612a6c565b5b8135612cdc848260208601612c77565b91505092915050565b5f5f5f5f60808587031215612cfd57612cfc612689565b5b5f612d0a878288016128a0565b9450506020612d1b878288016128a0565b9350506040612d2c878288016127f3565b925050606085013567ffffffffffffffff811115612d4d57612d4c61268d565b5b612d5987828801612cb8565b91505092959194509250565b5f606082019050612d785f8301866128f2565b612d856020830185612862565b612d92604083018461271c565b949350505050565b5f5f60408385031215612db057612daf612689565b5b5f612dbd858286016127f3565b9250506020612dce858286016127f3565b9150509250929050565b5f5f60408385031215612dee57612ded612689565b5b5f612dfb858286016128a0565b9250506020612e0c858286016128a0565b9150509250929050565b7f4e487b71000000000000000000000000000000000000000000000000000000005f52602260045260245ffd5b5f6002820490506001821680612e5a57607f821691505b602082108103612e6d57612e6c612e16565b5b50919050565b5f606082019050612e865f830186612862565b612e9360208301856128f2565b612ea06040830184612862565b949350505050565b7f4e6f74207468652073656c6c65720000000000000000000000000000000000005f82015250565b5f612edc600e8361274e565b9150612ee782612ea8565b602082019050919050565b5f6020820190508181035f830152612f0981612ed0565b9050919050565b7f4e6f74206c6973746564000000000000000000000000000000000000000000005f82015250565b5f612f44600a8361274e565b9150612f4f82612f10565b602082019050919050565b5f6020820190508181035f830152612f7181612f38565b9050919050565b7f4e4654206e6f74206c69737465640000000000000000000000000000000000005f82015250565b5f612fac600e8361274e565b9150612fb782612f78565b602082019050919050565b5f6020820190508181035f830152612fd981612fa0565b9050919050565b7f496e73756666696369656e74207061796d656e740000000000000000000000005f82015250565b5f61301460148361274e565b915061301f82612fe0565b602082019050919050565b5f6020820190508181035f83015261304181613008565b9050919050565b5f81905092915050565b50565b5f6130605f83613048565b915061306b82613052565b5f82019050919050565b5f61307f82613055565b9150819050919050565b7f5061796d656e74206661696c65640000000000000000000000000000000000005f82015250565b5f6130bd600e8361274e565b91506130c882613089565b602082019050919050565b5f6020820190508181035f8301526130ea816130b1565b9050919050565b7f4e487b71000000000000000000000000000000000000000000000000000000005f52601160045260245ffd5b5f613128826127d4565b9150613133836127d4565b925082820390508181111561314b5761314a6130f1565b5b92915050565b7f526566756e64206661696c6564000000000000000000000000000000000000005f82015250565b5f613185600d8361274e565b915061319082613151565b602082019050919050565b5f6020820190508181035f8301526131b281613179565b9050919050565b7f4e487b71000000000000000000000000000000000000000000000000000000005f52603260045260245ffd5b5f6131f0826127d4565b91507fffffffffffffffffffffffffffffffffffffffffffffffffffffffffffffffff8203613222576132216130f1565b5b600182019050919050565b5f81905092915050565b5f61324182612744565b61324b818561322d565b935061325b81856020860161275e565b80840191505092915050565b5f6132728285613237565b915061327e8284613237565b91508190509392505050565b7f4e6f7420746865206f776e6572000000000000000000000000000000000000005f82015250565b5f6132be600d8361274e565b91506132c98261328a565b602082019050919050565b5f6020820190508181035f8301526132eb816132b2565b9050919050565b7f5072696365206d7573742062652067726561746572207468616e2030000000005f82015250565b5f613326601c8361274e565b9150613331826132f2565b602082019050919050565b5f6020820190508181035f8301526133538161331a565b9050919050565b7f416c7265616479206c69737465640000000000000000000000000000000000005f82015250565b5f61338e600e8361274e565b91506133998261335a565b602082019050919050565b5f6020820190508181035f8301526133bb81613382565b9050919050565b5f819050815f5260205f209050919050565b5f6020601f8301049050919050565b5f82821b905092915050565b5f6008830261341e7fffffffffffffffffffffffffffffffffffffffffffffffffffffffffffffffff826133e3565b61342886836133e3565b95508019841693508086168417925050509392505050565b5f819050919050565b5f61346361345e613459846127d4565b613440565b6127d4565b9050919050565b5f819050919050565b61347c83613449565b6134906134888261346a565b8484546133ef565b825550505050565b5f5f905090565b6134a7613498565b6134b2818484613473565b505050565b5b818110156134d5576134ca5f8261349f565b6001810190506134b8565b5050565b601f82111561351a576134eb816133c2565b6134f4846133d4565b81016020851015613503578190505b61351761350f856133d4565b8301826134b7565b50505b505050565b5f82821c905092915050565b5f61353a5f198460080261351f565b1980831691505092915050565b5f613552838361352b565b9150826002028217905092915050565b61356b82612744565b67ffffffffffffffff81111561358457613583612a74565b5b61358e8254612e43565b6135998282856134d9565b5f60209050601f8311600181146135ca575f84156135b8578287015190505b6135c28582613547565b865550613629565b601f1984166135d8866133c2565b5f5b828110156135ff578489015182556001820191506020850194506020810190506135da565b8683101561361c5784890151613618601f89168261352b565b8355505b6001600288020188555050505b505050505050565b5f81519050919050565b5f82825260208201905092915050565b5f61365582613631565b61365f818561363b565b935061366f81856020860161275e565b6136788161276c565b840191505092915050565b5f6080820190506136965f830187612862565b6136a36020830186612862565b6136b060408301856128f2565b81810360608301526136c2818461364b565b905095945050505050565b5f815190506136db816126bc565b92915050565b5f602082840312156136f6576136f5612689565b5b5f613703848285016136cd565b91505092915050565b5f60408201905061371f5f830185612862565b61372c60208301846128f2565b9392505050565b7f4e487b71000000000000000000000000000000000000000000000000000000005f52601260045260245ffdfea2646970667358221220b6edebd83b883896c15b90c2147f914c13f1337e07fc8d816fdfac5259ea934464736f6c634300081c0033",
    "linkReferences": {},
    "deployedLinkReferences": {},
    "immutableReferences": {},
    "inputSourceName": "project/contracts/GaslessNFTMarketplace.sol",
    "buildInfoId": "solc-0_8_28-d65c5a6343845f2b53be47f743b6d7c1de41e2cc"
}